{
  "abi": [
    {
      "type": "function",
      "name": "DEFAULT_ADMIN_ROLE",
      "inputs": [],
      "outputs": [
        {
          "name": "",
          "type": "bytes32",
          "internalType": "bytes32"
        }
      ],
      "stateMutability": "view"
    },
    {
      "type": "function",
      "name": "DISTRIBUTOR_ROLE",
      "inputs": [],
      "outputs": [
        {
          "name": "",
          "type": "bytes32",
          "internalType": "bytes32"
        }
      ],
      "stateMutability": "view"
    },
    {
      "type": "function",
      "name": "allocate",
      "inputs": [
        {
          "name": "recipient",
          "type": "address",
          "internalType": "address"
        },
        {
          "name": "amount",
          "type": "uint256",
          "internalType": "uint256"
        },
        {
          "name": "claim",
          "type": "bool",
          "internalType": "bool"
        }
      ],
      "outputs": [],
      "stateMutability": "nonpayable"
    },
    {
      "type": "function",
      "name": "allocateMany",
      "inputs": [
        {
          "name": "recipients",
          "type": "address[]",
          "internalType": "address[]"
        },
        {
          "name": "amounts",
          "type": "uint256[]",
          "internalType": "uint256[]"
        }
      ],
      "outputs": [],
      "stateMutability": "nonpayable"
    },
    {
      "type": "function",
      "name": "assign",
      "inputs": [
        {
          "name": "distributor",
          "type": "address",
          "internalType": "address"
        },
        {
          "name": "amount",
          "type": "uint256",
          "internalType": "uint256"
        }
      ],
      "outputs": [],
      "stateMutability": "nonpayable"
    },
    {
      "type": "function",
      "name": "balances",
      "inputs": [
        {
          "name": "",
          "type": "address",
          "internalType": "address"
        }
      ],
      "outputs": [
        {
          "name": "allocatedTokens",
          "type": "uint256",
          "internalType": "uint256"
        },
        {
          "name": "claimed",
          "type": "uint256",
          "internalType": "uint256"
        }
      ],
      "stateMutability": "view"
    },
    {
      "type": "function",
      "name": "cancelable",
      "inputs": [],
      "outputs": [
        {
          "name": "",
          "type": "bool",
          "internalType": "bool"
        }
      ],
      "stateMutability": "view"
    },
    {
      "type": "function",
      "name": "changeAddress",
      "inputs": [
        {
          "name": "newAddress",
          "type": "address",
          "internalType": "address"
        }
      ],
      "outputs": [],
      "stateMutability": "nonpayable"
    },
    {
      "type": "function",
      "name": "claim",
      "inputs": [],
      "outputs": [],
      "stateMutability": "nonpayable"
    },
    {
      "type": "function",
      "name": "claimTo",
      "inputs": [
        {
          "name": "account",
          "type": "address",
          "internalType": "address"
        }
      ],
      "outputs": [],
      "stateMutability": "nonpayable"
    },
    {
      "type": "function",
      "name": "claimableAt",
      "inputs": [
        {
          "name": "recipient",
          "type": "address",
          "internalType": "address"
        },
        {
          "name": "timestamp",
          "type": "uint256",
          "internalType": "uint256"
        }
      ],
      "outputs": [
        {
          "name": "",
          "type": "uint256",
          "internalType": "uint256"
        }
      ],
      "stateMutability": "view"
    },
    {
      "type": "function",
      "name": "claimableNow",
      "inputs": [
        {
          "name": "recipient",
          "type": "address",
          "internalType": "address"
        }
      ],
      "outputs": [
        {
          "name": "",
          "type": "uint256",
          "internalType": "uint256"
        }
      ],
      "stateMutability": "view"
    },
    {
      "type": "function",
      "name": "cliffTime",
      "inputs": [],
      "outputs": [
        {
          "name": "",
          "type": "uint256",
          "internalType": "uint256"
        }
      ],
      "stateMutability": "view"
    },
    {
      "type": "function",
      "name": "duration",
      "inputs": [],
      "outputs": [
        {
          "name": "",
          "type": "uint256",
          "internalType": "uint256"
        }
      ],
      "stateMutability": "view"
    },
    {
      "type": "function",
      "name": "getRoleAdmin",
      "inputs": [
        {
          "name": "role",
          "type": "bytes32",
          "internalType": "bytes32"
        }
      ],
      "outputs": [
        {
          "name": "",
          "type": "bytes32",
          "internalType": "bytes32"
        }
      ],
      "stateMutability": "view"
    },
    {
      "type": "function",
      "name": "getRoleMember",
      "inputs": [
        {
          "name": "role",
          "type": "bytes32",
          "internalType": "bytes32"
        },
        {
          "name": "index",
          "type": "uint256",
          "internalType": "uint256"
        }
      ],
      "outputs": [
        {
          "name": "",
          "type": "address",
          "internalType": "address"
        }
      ],
      "stateMutability": "view"
    },
    {
      "type": "function",
      "name": "getRoleMemberCount",
      "inputs": [
        {
          "name": "role",
          "type": "bytes32",
          "internalType": "bytes32"
        }
      ],
      "outputs": [
        {
          "name": "",
          "type": "uint256",
          "internalType": "uint256"
        }
      ],
      "stateMutability": "view"
    },
    {
      "type": "function",
      "name": "getTimestamp",
      "inputs": [],
      "outputs": [
        {
          "name": "",
          "type": "uint256",
          "internalType": "uint256"
        }
      ],
      "stateMutability": "view"
    },
    {
      "type": "function",
      "name": "globallyClaimableAt",
      "inputs": [
        {
          "name": "timestamp",
          "type": "uint256",
          "internalType": "uint256"
        }
      ],
      "outputs": [
        {
          "name": "",
          "type": "uint256",
          "internalType": "uint256"
        }
      ],
      "stateMutability": "view"
    },
    {
      "type": "function",
      "name": "grantRole",
      "inputs": [
        {
          "name": "role",
          "type": "bytes32",
          "internalType": "bytes32"
        },
        {
          "name": "account",
          "type": "address",
          "internalType": "address"
        }
      ],
      "outputs": [],
      "stateMutability": "nonpayable"
    },
    {
      "type": "function",
      "name": "hasRole",
      "inputs": [
        {
          "name": "role",
          "type": "bytes32",
          "internalType": "bytes32"
        },
        {
          "name": "account",
          "type": "address",
          "internalType": "address"
        }
      ],
      "outputs": [
        {
          "name": "",
          "type": "bool",
          "internalType": "bool"
        }
      ],
      "stateMutability": "view"
    },
    {
      "type": "function",
      "name": "initialAmount",
      "inputs": [],
      "outputs": [
        {
          "name": "",
          "type": "uint256",
          "internalType": "uint256"
        }
      ],
      "stateMutability": "view"
    },
    {
      "type": "function",
      "name": "initialize",
      "inputs": [
        {
          "name": "_totalTokens",
          "type": "uint256",
          "internalType": "uint256"
        },
        {
          "name": "_startTime",
          "type": "uint256",
          "internalType": "uint256"
        },
        {
          "name": "_cliffPeriod",
          "type": "uint256",
          "internalType": "uint256"
        },
        {
          "name": "_duration",
          "type": "uint256",
          "internalType": "uint256"
        },
        {
          "name": "_initialPercentage",
          "type": "uint256",
          "internalType": "uint256"
        },
        {
          "name": "_token",
          "type": "address",
          "internalType": "contract IERC20Upgradeable"
        },
        {
          "name": "_cancelable",
          "type": "bool",
          "internalType": "bool"
        }
      ],
      "outputs": [],
      "stateMutability": "nonpayable"
    },
    {
      "type": "function",
      "name": "lockedAmount",
      "inputs": [],
      "outputs": [
        {
          "name": "",
          "type": "uint256",
          "internalType": "uint256"
        }
      ],
      "stateMutability": "view"
    },
    {
      "type": "function",
      "name": "renounceRole",
      "inputs": [
        {
          "name": "role",
          "type": "bytes32",
          "internalType": "bytes32"
        },
        {
          "name": "account",
          "type": "address",
          "internalType": "address"
        }
      ],
      "outputs": [],
      "stateMutability": "nonpayable"
    },
    {
      "type": "function",
      "name": "revokeRole",
      "inputs": [
        {
          "name": "role",
          "type": "bytes32",
          "internalType": "bytes32"
        },
        {
          "name": "account",
          "type": "address",
          "internalType": "address"
        }
      ],
      "outputs": [],
      "stateMutability": "nonpayable"
    },
    {
      "type": "function",
      "name": "sendGIVbacks",
      "inputs": [
        {
          "name": "recipients",
          "type": "address[]",
          "internalType": "address[]"
        },
        {
          "name": "amounts",
          "type": "uint256[]",
          "internalType": "uint256[]"
        }
      ],
      "outputs": [],
      "stateMutability": "nonpayable"
    },
    {
      "type": "function",
      "name": "sendPraiseRewards",
      "inputs": [
        {
          "name": "recipients",
          "type": "address[]",
          "internalType": "address[]"
        },
        {
          "name": "amounts",
          "type": "uint256[]",
          "internalType": "uint256[]"
        }
      ],
      "outputs": [],
      "stateMutability": "nonpayable"
    },
    {
      "type": "function",
      "name": "setDuration",
      "inputs": [
        {
          "name": "newDuration",
          "type": "uint256",
          "internalType": "uint256"
        }
      ],
      "outputs": [],
      "stateMutability": "nonpayable"
    },
    {
      "type": "function",
      "name": "setStartTime",
      "inputs": [
        {
          "name": "newStartTime",
          "type": "uint256",
          "internalType": "uint256"
        }
      ],
      "outputs": [],
      "stateMutability": "nonpayable"
    },
    {
      "type": "function",
      "name": "startTime",
      "inputs": [],
      "outputs": [
        {
          "name": "",
          "type": "uint256",
          "internalType": "uint256"
        }
      ],
      "stateMutability": "view"
    },
    {
      "type": "function",
      "name": "supportsInterface",
      "inputs": [
        {
          "name": "interfaceId",
          "type": "bytes4",
          "internalType": "bytes4"
        }
      ],
      "outputs": [
        {
          "name": "",
          "type": "bool",
          "internalType": "bool"
        }
      ],
      "stateMutability": "view"
    },
    {
      "type": "function",
      "name": "token",
      "inputs": [],
      "outputs": [
        {
          "name": "",
          "type": "address",
          "internalType": "contract IERC20Upgradeable"
        }
      ],
      "stateMutability": "view"
    },
    {
      "type": "function",
      "name": "totalTokens",
      "inputs": [],
      "outputs": [
        {
          "name": "",
          "type": "uint256",
          "internalType": "uint256"
        }
      ],
      "stateMutability": "view"
    },
    {
      "type": "function",
      "name": "transferAllocation",
      "inputs": [
        {
          "name": "prevRecipient",
          "type": "address",
          "internalType": "address"
        },
        {
          "name": "newRecipient",
          "type": "address",
          "internalType": "address"
        }
      ],
      "outputs": [],
      "stateMutability": "nonpayable"
    },
    {
      "type": "event",
      "name": "Allocate",
      "inputs": [
        {
          "name": "distributor",
          "type": "address",
          "indexed": true,
          "internalType": "address"
        },
        {
          "name": "grantee",
          "type": "address",
          "indexed": true,
          "internalType": "address"
        },
        {
          "name": "amount",
          "type": "uint256",
          "indexed": false,
          "internalType": "uint256"
        }
      ],
      "anonymous": false
    },
    {
      "type": "event",
      "name": "Assign",
      "inputs": [
        {
          "name": "admin",
          "type": "address",
          "indexed": true,
          "internalType": "address"
        },
        {
          "name": "distributor",
          "type": "address",
          "indexed": true,
          "internalType": "address"
        },
        {
          "name": "amount",
          "type": "uint256",
          "indexed": false,
          "internalType": "uint256"
        }
      ],
      "anonymous": false
    },
    {
      "type": "event",
      "name": "ChangeAddress",
      "inputs": [
        {
          "name": "oldAddress",
          "type": "address",
          "indexed": true,
          "internalType": "address"
        },
        {
          "name": "newAddress",
          "type": "address",
          "indexed": true,
          "internalType": "address"
        }
      ],
      "anonymous": false
    },
    {
      "type": "event",
      "name": "Claim",
      "inputs": [
        {
          "name": "grantee",
          "type": "address",
          "indexed": true,
          "internalType": "address"
        },
        {
          "name": "amount",
          "type": "uint256",
          "indexed": false,
          "internalType": "uint256"
        }
      ],
      "anonymous": false
    },
    {
      "type": "event",
      "name": "DurationChanged",
      "inputs": [
        {
          "name": "newDuration",
          "type": "uint256",
          "indexed": false,
          "internalType": "uint256"
        }
      ],
      "anonymous": false
    },
    {
      "type": "event",
      "name": "GivBackPaid",
      "inputs": [
        {
          "name": "distributor",
          "type": "address",
          "indexed": false,
          "internalType": "address"
        }
      ],
      "anonymous": false
    },
    {
      "type": "event",
      "name": "Initialized",
      "inputs": [
        {
          "name": "version",
          "type": "uint8",
          "indexed": false,
          "internalType": "uint8"
        }
      ],
      "anonymous": false
    },
    {
      "type": "event",
      "name": "PraiseRewardPaid",
      "inputs": [
        {
          "name": "distributor",
          "type": "address",
          "indexed": false,
          "internalType": "address"
        }
      ],
      "anonymous": false
    },
    {
      "type": "event",
      "name": "RoleAdminChanged",
      "inputs": [
        {
          "name": "role",
          "type": "bytes32",
          "indexed": true,
          "internalType": "bytes32"
        },
        {
          "name": "previousAdminRole",
          "type": "bytes32",
          "indexed": true,
          "internalType": "bytes32"
        },
        {
          "name": "newAdminRole",
          "type": "bytes32",
          "indexed": true,
          "internalType": "bytes32"
        }
      ],
      "anonymous": false
    },
    {
      "type": "event",
      "name": "RoleGranted",
      "inputs": [
        {
          "name": "role",
          "type": "bytes32",
          "indexed": true,
          "internalType": "bytes32"
        },
        {
          "name": "account",
          "type": "address",
          "indexed": true,
          "internalType": "address"
        },
        {
          "name": "sender",
          "type": "address",
          "indexed": true,
          "internalType": "address"
        }
      ],
      "anonymous": false
    },
    {
      "type": "event",
      "name": "RoleRevoked",
      "inputs": [
        {
          "name": "role",
          "type": "bytes32",
          "indexed": true,
          "internalType": "bytes32"
        },
        {
          "name": "account",
          "type": "address",
          "indexed": true,
          "internalType": "address"
        },
        {
          "name": "sender",
          "type": "address",
          "indexed": true,
          "internalType": "address"
        }
      ],
      "anonymous": false
    },
    {
      "type": "event",
      "name": "StartTimeChanged",
      "inputs": [
        {
          "name": "newStartTime",
          "type": "uint256",
          "indexed": false,
          "internalType": "uint256"
        },
        {
          "name": "newCliffTime",
          "type": "uint256",
          "indexed": false,
          "internalType": "uint256"
        }
      ],
      "anonymous": false
    }
  ],
  "bytecode": {
    "object": "0x608060405234801561001057600080fd5b50612411806100206000396000f3fe608060405234801561001057600080fd5b50600436106102115760003560e01c80637932867711610125578063c7aaa8d4116100ad578063f0bd87cc1161007c578063f0bd87cc14610472578063f6be71d114610487578063fc0c546a1461049a578063fc1ed437146104ad578063fe64d6ff146104b657600080fd5b8063c7aaa8d414610425578063ca15c87314610438578063d547741f1461044b578063eee565641461045e57600080fd5b806391d14854116100f457806391d14854146103d15780639a78ea4a146103e4578063a217fddf146103f7578063a262f5f8146103ff578063be7604881461041257600080fd5b806379328677146103775780637e1c0c091461038a5780637effb533146103935780639010d07c146103a657600080fd5b806336568abe116101a85780635066c893116101775780635066c8931461032c5780636ab28bc81461033f5780636ca163de146103485780636d8500db1461035b57806378e979251461036e57600080fd5b806336568abe146102eb578063397f6121146102fe5780633e0a322d146103115780634e71d92d1461032457600080fd5b8063208c9327116101e4578063208c932714610264578063248a9ca31461027957806327e235e31461029c5780632f2ff15d146102d857600080fd5b806301ffc9a7146102165780630f1a64441461023e5780630fb5a6b414610255578063188ec3561461025e575b600080fd5b610229610224366004611daa565b6104c9565b60405190151581526020015b60405180910390f35b61024760cc5481565b604051908152602001610235565b61024760cd5481565b42610247565b610277610272366004611ebf565b6104f4565b005b610247610287366004611f81565b60009081526065602052604090206001015490565b6102c36102aa366004611f9a565b60c9602052600090815260409020805460019091015482565b60408051928352602083019190915201610235565b6102776102e6366004611fb7565b610536565b6102776102f9366004611fb7565b610560565b61027761030c366004611fe7565b6105e3565b61027761031f366004611f81565b6106aa565b6102776107eb565b61024761033a366004612015565b6107f6565b61024760cf5481565b61027761035636600461204f565b61095b565b610247610369366004611f81565b6109ca565b61024760cb5481565b610277610385366004611ebf565b610a50565b61024760ca5481565b6102776103a1366004611ebf565b610a5a565b6103b96103b4366004612091565b610a94565b6040516001600160a01b039091168152602001610235565b6102296103df366004611fb7565b610aac565b6102476103f2366004611f9a565b610ad7565b610247600081565b61027761040d366004611f9a565b610ae3565b610277610420366004612015565b610aef565b6102776104333660046120b3565b610c70565b610247610446366004611f81565b610f04565b610277610459366004611fb7565b610f1b565b60d05461022990600160a01b900460ff1681565b6102476000805160206123bc83398151915281565b610277610495366004611f81565b610f40565b60d0546103b9906001600160a01b031681565b61024760ce5481565b6102776104c4366004611f9a565b61104e565b60006001600160e01b03198216635a05180f60e01b14806104ee57506104ee82611058565b92915050565b6104fe828261108d565b6040513381527fba378556e3a218f9dc0332f520ed51981c0e0eb43bf8302f9559fdfe9d538181906020015b60405180910390a15050565b600082815260656020526040902060010154610551816111b8565b61055b83836111c2565b505050565b6001600160a01b03811633146105d55760405162461bcd60e51b815260206004820152602f60248201527f416363657373436f6e74726f6c3a2063616e206f6e6c792072656e6f756e636560448201526e103937b632b9903337b91039b2b63360891b60648201526084015b60405180910390fd5b6105df82826111e4565b5050565b60d054600160a01b900460ff166106425760405162461bcd60e51b815260206004820152602f602482015260008051602061239c83398151915260448201526e204e4f545f43414e43454c41424c4560881b60648201526084016105cc565b61064d600033610aac565b6106a05760405162461bcd60e51b8152602060048201526030602482015260008051602061239c83398151915260448201526f204f4e4c595f41444d494e5f524f4c4560801b60648201526084016105cc565b6105df8282611206565b6106b5600033610aac565b6107145760405162461bcd60e51b815260206004820152602a60248201527f546f6b656e44697374726f3a3a736574537461727454696d653a204f4e4c595f60448201526941444d494e5f524f4c4560b01b60648201526084016105cc565b4260cb5411801561072457504281115b61078a5760405162461bcd60e51b815260206004820152603160248201527f546f6b656e44697374726f3a3a736574537461727454696d653a2049465f484160448201527014d7d393d517d4d5105495115117d65155607a1b60648201526084016105cc565b600060cb5460cc5461079c9190612132565b60cb83905590506107ad8183612145565b60cc81905560cb546040517fbefe8e3983c0dc663c4ba451fc82d4ff7eb2e4ccc4b944874abea1ecc841feae9261052a928252602082015260400190565b6107f4336113ed565b565b60006108106000805160206123bc83398151915284610aac565b156108835760405162461bcd60e51b815260206004820152603760248201527f546f6b656e44697374726f3a3a636c61696d61626c6541743a2044495354524960448201527f4255544f525f524f4c455f43414e4e4f545f434c41494d00000000000000000060648201526084016105cc565b428210156108ee5760405162461bcd60e51b815260206004820152603260248201527f546f6b656e44697374726f3a3a636c61696d61626c6541743a204e4f545f564160448201527104c49445f504153545f54494d455354414d560741b60648201526084016105cc565b60ca546001600160a01b038416600090815260c96020526040812054909190610916856109ca565b6109209190612158565b61092a919061216f565b6001600160a01b038516600090815260c960205260409020600101549091506109539082612132565b949350505050565b6109736000805160206123bc83398151915233610aac565b61098f5760405162461bcd60e51b81526004016105cc90612191565b33600090815260c96020526040902060010154156109bf5760405162461bcd60e51b81526004016105cc906121e4565b61055b8383836114fe565b600060cb548210156109de57506000919050565b60cc548210156109f057505060ce5490565b60cd5460cb54610a009190612145565b821115610a0f57505060ca5490565b600060cb5483610a1f9190612132565b905060cd5460cf5482610a329190612158565b610a3c919061216f565b60ce54610a499190612145565b9392505050565b6105df828261108d565b610a64828261108d565b6040513381527f501554fe9eb720f094fa1c09c71f38933a18b834045c8afd91a329cf38021d1c9060200161052a565b6000828152609760205260408120610a49908361164b565b60009182526065602090815260408084206001600160a01b0393909316845291905290205460ff1690565b60006104ee82426107f6565b610aec816113ed565b50565b610afa600033610aac565b610b525760405162461bcd60e51b8152602060048201526024808201527f546f6b656e44697374726f3a3a61737369676e3a204f4e4c595f41444d494e5f604482015263524f4c4560e01b60648201526084016105cc565b610b6a6000805160206123bc83398151915283610aac565b610bcc5760405162461bcd60e51b815260206004820152602d60248201527f546f6b656e44697374726f3a3a61737369676e3a204f4e4c595f544f5f44495360448201526c5452494255544f525f524f4c4560981b60648201526084016105cc565b30600090815260c96020526040902054610be7908290612132565b30600090815260c96020526040808220929092556001600160a01b03841681522054610c14908290612145565b6001600160a01b038316600081815260c960205260409081902092909255905133907e7ae6a979e5d8177867f7c1ca4be1527487a2e43a444b55c3dfaee02c42354490610c649085815260200190565b60405180910390a35050565b600054610100900460ff1615808015610c905750600054600160ff909116105b80610caa5750303b158015610caa575060005460ff166001145b610d0d5760405162461bcd60e51b815260206004820152602e60248201527f496e697469616c697a61626c653a20636f6e747261637420697320616c72656160448201526d191e481a5b9a5d1a585b1a5e995960921b60648201526084016105cc565b6000805460ff191660011790558015610d30576000805461ff0019166101001790555b85851015610d9b5760405162461bcd60e51b815260206004820152603260248201527f546f6b656e44697374726f3a3a636f6e7374727563746f723a2044555241544960448201527127a72fa622a9a9afaa2420a72fa1a624a32360711b60648201526084016105cc565b612710841115610e135760405162461bcd60e51b815260206004820152603c60248201527f546f6b656e44697374726f3a3a636f6e7374727563746f723a20494e4954494160448201527f4c50455243454e544147455f475245415445525f5448414e5f3130300000000060648201526084016105cc565b610e1b611657565b610e266000336116c2565b6000612710610e35868b612158565b610e3f919061216f565b60d080546001600160a01b0319166001600160a01b03871617905560cd87905560cb89905560ca8a905560ce8190559050610e7a8789612145565b60cc55610e87818a612132565b60cf555030600090815260c96020526040902088905560d0805460ff60a01b1916600160a01b841515021790558015610efa576000805461ff0019169055604051600181527f7f26b83ff96e1f2b6a682f133852f6798a09c465da95921460cefb38474024989060200160405180910390a15b5050505050505050565b60008181526097602052604081206104ee906116cc565b600082815260656020526040902060010154610f36816111b8565b61055b83836111e4565b610f4b600033610aac565b610fa95760405162461bcd60e51b815260206004820152602960248201527f546f6b656e44697374726f3a3a7365744475726174696f6e3a204f4e4c595f41604482015268444d494e5f524f4c4560b81b60648201526084016105cc565b4260cb54116110135760405162461bcd60e51b815260206004820152603060248201527f546f6b656e44697374726f3a3a7365744475726174696f6e3a2049465f48415360448201526f17d393d517d4d5105495115117d6515560821b60648201526084016105cc565b60cd8190556040518181527f9bb10695bde7db94333a5404f0767118f3965fd73217e45f96529c3d368285af9060200160405180910390a150565b610aec3382611206565b60006001600160e01b03198216637965db0b60e01b14806104ee57506301ffc9a760e01b6001600160e01b03198316146104ee565b6110a56000805160206123bc83398151915233610aac565b6110c15760405162461bcd60e51b81526004016105cc90612191565b33600090815260c96020526040902060010154156110f15760405162461bcd60e51b81526004016105cc906121e4565b805182511461115c5760405162461bcd60e51b815260206004820152603160248201527f546f6b656e44697374726f3a3a616c6c6f636174654d616e793a20494e5055546044820152700be988a9c8ea890be9c9ea8be9a82a8869607b1b60648201526084016105cc565b60005b825181101561055b576111a683828151811061117d5761117d61223a565b60200260200101518383815181106111975761119761223a565b602002602001015160006114fe565b806111b081612250565b91505061115f565b610aec81336116d6565b6111cc828261172f565b600082815260976020526040902061055b90826117b5565b6111ee82826117ca565b600082815260976020526040902061055b9082611831565b6001600160a01b038216600090815260c9602052604090205461127f5760405162461bcd60e51b815260206004820152603a602482015260008051602061239c83398151915260448201527f204e4f5f414c4c4f434154494f4e5f544f5f5452414e5346455200000000000060648201526084016105cc565b6112976000805160206123bc83398151915283610aac565b1580156112b957506112b76000805160206123bc83398151915282610aac565b155b6113275760405162461bcd60e51b8152602060048201526045602482015260008051602061239c83398151915260448201527f204449535452494255544f525f524f4c455f4e4f545f415f56414c49445f4144606482015264445245535360d81b608482015260a4016105cc565b6001600160a01b03808216600090815260c960205260408082205492851682529020546113549190612145565b6001600160a01b03828116600090815260c96020526040808220938455918516815290812090815560019182015491015461138f9190612145565b6001600160a01b03808316600081815260c9602052604080822060019081019590955592861680825283822090940181905591519092917f8839b4e99cbac9b99de60313e9f1679f46d6837a692b8c052bf0bd6cacb19c7991a35050565b60006113f882610ad7565b9050600081116114615760405162461bcd60e51b815260206004820152602e60248201527f546f6b656e44697374726f3a3a636c61696d3a204e4f545f454e4f5547485f5460448201526d4f4b454e535f544f5f434c41494d60901b60648201526084016105cc565b6001600160a01b038216600090815260c96020526040902060010154611488908290612145565b6001600160a01b03808416600090815260c9602052604090206001019190915560d0546114b791168383611846565b816001600160a01b03167f47cee97cb7acd717b3c0aa1435d004cd5b3c8c57d70dbceb4e4458bbd60e39d4826040516114f291815260200190565b60405180910390a25050565b6115166000805160206123bc83398151915284610aac565b156115825760405162461bcd60e51b815260206004820152603660248201527f546f6b656e44697374726f3a3a616c6c6f636174653a2044495354524942555460448201527513d497d393d517d59053125117d49150d2541251539560521b60648201526084016105cc565b33600090815260c9602052604090205461159d908390612132565b33600090815260c96020526040808220929092556001600160a01b038516815220546115ca908390612145565b6001600160a01b038416600090815260c960205260409020558080156115f8575060006115f684610ad7565b115b1561160657611606836113ed565b6040518281526001600160a01b0384169033907f5168bfb88d6125d4580e2b91ecb103a730312c3e8b0be9c4031a0fc794e2cd5f9060200160405180910390a3505050565b6000610a498383611898565b600054610100900460ff166107f45760405162461bcd60e51b815260206004820152602b60248201527f496e697469616c697a61626c653a20636f6e7472616374206973206e6f74206960448201526a6e697469616c697a696e6760a81b60648201526084016105cc565b6105df82826111c2565b60006104ee825490565b6116e08282610aac565b6105df576116ed816118c2565b6116f88360206118d4565b60405160200161170992919061228d565b60408051601f198184030181529082905262461bcd60e51b82526105cc91600401612302565b6117398282610aac565b6105df5760008281526065602090815260408083206001600160a01b03851684529091529020805460ff191660011790556117713390565b6001600160a01b0316816001600160a01b0316837f2f8788117e7eff1d82e926ec794901d17c78024a50270940304540a733656f0d60405160405180910390a45050565b6000610a49836001600160a01b038416611a70565b6117d48282610aac565b156105df5760008281526065602090815260408083206001600160a01b0385168085529252808320805460ff1916905551339285917ff6391f5c32d9c69d2a47ea670b442974b53935d1edc7fd64eb21e047a839171b9190a45050565b6000610a49836001600160a01b038416611abf565b604080516001600160a01b038416602482015260448082018490528251808303909101815260649091019091526020810180516001600160e01b031663a9059cbb60e01b17905261055b908490611bb2565b60008260000182815481106118af576118af61223a565b9060005260206000200154905092915050565b60606104ee6001600160a01b03831660145b606060006118e3836002612158565b6118ee906002612145565b67ffffffffffffffff81111561190657611906611dd4565b6040519080825280601f01601f191660200182016040528015611930576020820181803683370190505b509050600360fc1b8160008151811061194b5761194b61223a565b60200101906001600160f81b031916908160001a905350600f60fb1b8160018151811061197a5761197a61223a565b60200101906001600160f81b031916908160001a905350600061199e846002612158565b6119a9906001612145565b90505b6001811115611a21576f181899199a1a9b1b9c1cb0b131b232b360811b85600f16601081106119dd576119dd61223a565b1a60f81b8282815181106119f3576119f361223a565b60200101906001600160f81b031916908160001a90535060049490941c93611a1a81612335565b90506119ac565b508315610a495760405162461bcd60e51b815260206004820181905260248201527f537472696e67733a20686578206c656e67746820696e73756666696369656e7460448201526064016105cc565b6000818152600183016020526040812054611ab7575081546001818101845560008481526020808220909301849055845484825282860190935260409020919091556104ee565b5060006104ee565b60008181526001830160205260408120548015611ba8576000611ae3600183612132565b8554909150600090611af790600190612132565b9050818114611b5c576000866000018281548110611b1757611b1761223a565b9060005260206000200154905080876000018481548110611b3a57611b3a61223a565b6000918252602080832090910192909255918252600188019052604090208390555b8554869080611b6d57611b6d61234c565b6001900381819060005260206000200160009055905585600101600086815260200190815260200160002060009055600193505050506104ee565b60009150506104ee565b6000611c07826040518060400160405280602081526020017f5361666545524332303a206c6f772d6c6576656c2063616c6c206661696c6564815250856001600160a01b0316611c879092919063ffffffff16565b9050805160001480611c28575080806020019051810190611c289190612362565b61055b5760405162461bcd60e51b815260206004820152602a60248201527f5361666545524332303a204552433230206f7065726174696f6e20646964206e6044820152691bdd081cdd58d8d9595960b21b60648201526084016105cc565b6060610953848460008585600080866001600160a01b03168587604051611cae919061237f565b60006040518083038185875af1925050503d8060008114611ceb576040519150601f19603f3d011682016040523d82523d6000602084013e611cf0565b606091505b5091509150611d0187838387611d0c565b979650505050505050565b60608315611d7b578251600003611d74576001600160a01b0385163b611d745760405162461bcd60e51b815260206004820152601d60248201527f416464726573733a2063616c6c20746f206e6f6e2d636f6e747261637400000060448201526064016105cc565b5081610953565b6109538383815115611d905781518083602001fd5b8060405162461bcd60e51b81526004016105cc9190612302565b600060208284031215611dbc57600080fd5b81356001600160e01b031981168114610a4957600080fd5b634e487b7160e01b600052604160045260246000fd5b604051601f8201601f1916810167ffffffffffffffff81118282101715611e1357611e13611dd4565b604052919050565b600067ffffffffffffffff821115611e3557611e35611dd4565b5060051b60200190565b6001600160a01b0381168114610aec57600080fd5b600082601f830112611e6557600080fd5b81356020611e7a611e7583611e1b565b611dea565b82815260059290921b84018101918181019086841115611e9957600080fd5b8286015b84811015611eb45780358352918301918301611e9d565b509695505050505050565b60008060408385031215611ed257600080fd5b823567ffffffffffffffff80821115611eea57600080fd5b818501915085601f830112611efe57600080fd5b81356020611f0e611e7583611e1b565b82815260059290921b84018101918181019089841115611f2d57600080fd5b948201945b83861015611f54578535611f4581611e3f565b82529482019490820190611f32565b96505086013592505080821115611f6a57600080fd5b50611f7785828601611e54565b9150509250929050565b600060208284031215611f9357600080fd5b5035919050565b600060208284031215611fac57600080fd5b8135610a4981611e3f565b60008060408385031215611fca57600080fd5b823591506020830135611fdc81611e3f565b809150509250929050565b60008060408385031215611ffa57600080fd5b823561200581611e3f565b91506020830135611fdc81611e3f565b6000806040838503121561202857600080fd5b823561203381611e3f565b946020939093013593505050565b8015158114610aec57600080fd5b60008060006060848603121561206457600080fd5b833561206f81611e3f565b925060208401359150604084013561208681612041565b809150509250925092565b600080604083850312156120a457600080fd5b50508035926020909101359150565b600080600080600080600060e0888a0312156120ce57600080fd5b873596506020880135955060408801359450606088013593506080880135925060a08801356120fc81611e3f565b915060c088013561210c81612041565b8091505092959891949750929550565b634e487b7160e01b600052601160045260246000fd5b818103818111156104ee576104ee61211c565b808201808211156104ee576104ee61211c565b80820281158282048414176104ee576104ee61211c565b60008261218c57634e487b7160e01b600052601260045260246000fd5b500490565b60208082526033908201527f546f6b656e44697374726f3a3a6f6e6c794469737472696275746f723a204f4e6040820152724c595f4449535452494255544f525f524f4c4560681b606082015260800190565b60208082526036908201527f546f6b656e44697374726f3a3a6f6e6c794469737472696275746f723a204449604082015275535452494255544f525f43414e4e4f545f434c41494d60501b606082015260800190565b634e487b7160e01b600052603260045260246000fd5b6000600182016122625761226261211c565b5060010190565b60005b8381101561228457818101518382015260200161226c565b50506000910152565b7f416363657373436f6e74726f6c3a206163636f756e74200000000000000000008152600083516122c5816017850160208801612269565b7001034b99036b4b9b9b4b733903937b6329607d1b60179184019182015283516122f6816028840160208801612269565b01602801949350505050565b6020815260008251806020840152612321816040850160208701612269565b601f01601f19169190910160400192915050565b6000816123445761234461211c565b506000190190565b634e487b7160e01b600052603160045260246000fd5b60006020828403121561237457600080fd5b8151610a4981612041565b60008251612391818460208701612269565b919091019291505056fe546f6b656e44697374726f3a3a7472616e73666572416c6c6f636174696f6e3afbd454f36a7e1a388bd6fc3ab10d434aa4578f811acbbcf33afb1c697486313ca264697066735822122083460a86a132c3a960645bee8759eeabadd0aa2faad5a25bc8f7020c3cdd4d9264736f6c63430008140033",
    "linkReferences": {}
  },
  "methodIdentifiers": {
    "DEFAULT_ADMIN_ROLE()": "a217fddf",
    "DISTRIBUTOR_ROLE()": "f0bd87cc",
    "allocate(address,uint256,bool)": "6ca163de",
    "allocateMany(address[],uint256[])": "79328677",
    "assign(address,uint256)": "be760488",
    "balances(address)": "27e235e3",
    "cancelable()": "eee56564",
    "changeAddress(address)": "fe64d6ff",
    "claim()": "4e71d92d",
    "claimTo(address)": "a262f5f8",
    "claimableAt(address,uint256)": "5066c893",
    "claimableNow(address)": "9a78ea4a",
    "cliffTime()": "0f1a6444",
    "duration()": "0fb5a6b4",
    "getRoleAdmin(bytes32)": "248a9ca3",
    "getRoleMember(bytes32,uint256)": "9010d07c",
    "getRoleMemberCount(bytes32)": "ca15c873",
    "getTimestamp()": "188ec356",
    "globallyClaimableAt(uint256)": "6d8500db",
    "grantRole(bytes32,address)": "2f2ff15d",
    "hasRole(bytes32,address)": "91d14854",
    "initialAmount()": "fc1ed437",
    "initialize(uint256,uint256,uint256,uint256,uint256,address,bool)": "c7aaa8d4",
    "lockedAmount()": "6ab28bc8",
    "renounceRole(bytes32,address)": "36568abe",
    "revokeRole(bytes32,address)": "d547741f",
    "sendGIVbacks(address[],uint256[])": "7effb533",
    "sendPraiseRewards(address[],uint256[])": "208c9327",
    "setDuration(uint256)": "f6be71d1",
    "setStartTime(uint256)": "3e0a322d",
    "startTime()": "78e97925",
    "supportsInterface(bytes4)": "01ffc9a7",
    "token()": "fc0c546a",
    "totalTokens()": "7e1c0c09",
    "transferAllocation(address,address)": "397f6121"
  },
  "id": 1
}